:020000001029C5
:10000800FF00030E8301AC000A08AB008A017008E8
:10001800A3007B08A2007C08A1007D08A0008B1C1F
:100028008128861881282508003A031D1F280608FC
:10003800AA000130A5008817881B24280813252842
:1000480008178613861B2A2806132B280617061B53
:100058002F288612302886160330A4002408003C76
:1000680003184A2806172408870087170B30FB0057
:100078002630FC005D30FD00FD0B4028FC0B4028BD
:10008800FB0B402800000000A403322886118619C3
:100098004F28061150280615061954280613552806
:1000A80006178616861A5A2806125B280616061A96
:1000B8005F28871360288717871B6428071365281C
:1000C8000717061C6A2886186A286528861C70285F
:1000D800061C70288B1480282A088600AA01A5010E
:1000E8008813881B792808137A280817081B7E2884
:1000F80007137F2807178B10EE288B1CEE28861C09
:10010800EE282508003A031D8D280608AA000130AC
:10011800A5008717871B922807139328071706122D
:10012800061A982886119928861586199D28061179
:100138009E2806150330A4002408003C0318B8289C
:1001480086152408880088170B30FB002630FC0031
:100158005D30FD00FD0BAE28FC0BAE28FB0BAE2876
:1001680000000000A403A0280613061BBD28861261
:10017800BE288616861AC2288611C32886158617B1
:10018800861BC8280611C92806150619CD28081384
:10019800CE280817061CD328861CD328CE288618F4
:1001A800D928061CD9288B14EE282A088600AA010B
:1001B800A5018813881BE2280813E3280817081BE1
:1001C800E7288713E8288717871BEC280713ED28EB
:1001D80007178B102308F0002208FB002108FC00F9
:1001E8002008FD002B088A002C0E8300FF0E7F0ECE
:0201F8000900FC
:0E01FA008312031329088A00280882000800D7
:10020800FD208A110A128000840AA80A0319A90A83
:08021800F003031D0429080096
:1002200083120313A401A501A601A70107308316B9
:100230009F000330860089010908850005088800B1
:1002400008088700831285010508880008088700D0
:100250008B170B1683160117831286018617061556
:1002600001308900013085000530A6000830A70064
:100270000C30260203187C2926080B3A031D462958
:100280000130A6000503F0007008850027080B3A2E
:10029000031D50290130A7000903F00070088900F0
:1002A0002608073A031D5C290508003A031D5C294E
:1002B0000730A7008613061726080A3A031D65298A
:1002C0000508003A031D65297C2926080A3C880098
:1002D00027080A3C87000B30FB002630FC005D300D
:1002E000FD00FD0B7129FC0B7129FB0B712900002E
:1002F0000000A60AA70A3829A701A6018616061338
:100300000611061602308500023089000A30A60068
:100310000730A7000C3026020318C22926080B3A22
:10032000031D98290130A6000503F0007008850020
:1003300027080B3A031DA2290130A7000903F0008A
:100340007008890026080A3C880027080A3C8700B4
:1003500026080A3A031DB1290508003A031DB129F0
:10036000C2290B30FB002630FC005D30FD00FD0B88
:10037000B729FC0BB729FB0BB72900000000A60A20
:10038000A70A8A290612861585010730A6000A30B9
:1003900026020318E22926080A3C880027080A3C9E
:1003A00087000B30FB002630FC005D30FD00FD0BAC
:1003B000D729FC0BD729FB0BD72900000000A60A80
:0803C000A70AC7292C29E32933
:02400E004A2F37
:00000001FF
